{
  "contractName": "mockDAI",
  "abi": [
    {
      "inputs": [],
      "payable": false,
      "stateMutability": "nonpayable",
      "type": "constructor"
    },
    {
      "constant": true,
      "inputs": [],
      "name": "allocationStrategy",
      "outputs": [
        {
          "internalType": "address",
          "name": "",
          "type": "address"
        }
      ],
      "payable": false,
      "stateMutability": "view",
      "type": "function"
    },
    {
      "constant": true,
      "inputs": [],
      "name": "code",
      "outputs": [
        {
          "internalType": "address",
          "name": "",
          "type": "address"
        }
      ],
      "payable": false,
      "stateMutability": "view",
      "type": "function"
    },
    {
      "constant": true,
      "inputs": [],
      "name": "owner",
      "outputs": [
        {
          "internalType": "address",
          "name": "",
          "type": "address"
        }
      ],
      "payable": false,
      "stateMutability": "view",
      "type": "function"
    },
    {
      "constant": true,
      "inputs": [],
      "name": "getOwner",
      "outputs": [
        {
          "internalType": "address",
          "name": "",
          "type": "address"
        }
      ],
      "payable": false,
      "stateMutability": "view",
      "type": "function"
    },
    {
      "constant": true,
      "inputs": [],
      "name": "getAllocationStrategy",
      "outputs": [
        {
          "internalType": "address",
          "name": "",
          "type": "address"
        }
      ],
      "payable": false,
      "stateMutability": "view",
      "type": "function"
    },
    {
      "constant": true,
      "inputs": [],
      "name": "getCode",
      "outputs": [
        {
          "internalType": "address",
          "name": "",
          "type": "address"
        }
      ],
      "payable": false,
      "stateMutability": "view",
      "type": "function"
    },
    {
      "constant": false,
      "inputs": [
        {
          "internalType": "address",
          "name": "newOwner",
          "type": "address"
        }
      ],
      "name": "transferOwnership",
      "outputs": [],
      "payable": false,
      "stateMutability": "nonpayable",
      "type": "function"
    },
    {
      "constant": true,
      "inputs": [],
      "name": "getCurrentAllocationStrategy",
      "outputs": [
        {
          "internalType": "address",
          "name": "",
          "type": "address"
        }
      ],
      "payable": false,
      "stateMutability": "view",
      "type": "function"
    },
    {
      "constant": false,
      "inputs": [
        {
          "internalType": "address",
          "name": "_allocationStrategy",
          "type": "address"
        }
      ],
      "name": "changeAllocationStrategy",
      "outputs": [],
      "payable": false,
      "stateMutability": "nonpayable",
      "type": "function"
    },
    {
      "constant": false,
      "inputs": [
        {
          "internalType": "address",
          "name": "newCode",
          "type": "address"
        }
      ],
      "name": "updateCode",
      "outputs": [],
      "payable": false,
      "stateMutability": "nonpayable",
      "type": "function"
    }
  ],
  "bytecode": "0x608060405234801561001057600080fd5b5073b85141af6e497a508e60763a68560f2f710f83b26000806101000a81548173ffffffffffffffffffffffffffffffffffffffff021916908373ffffffffffffffffffffffffffffffffffffffff16021790555073ec458c824e645cc8b03a4ef3d3e364c7ae9f9521600160006101000a81548173ffffffffffffffffffffffffffffffffffffffff021916908373ffffffffffffffffffffffffffffffffffffffff16021790555073be19dbee25f447133d0fa3ca05b88d8ff2a9cb8f600260006101000a81548173ffffffffffffffffffffffffffffffffffffffff021916908373ffffffffffffffffffffffffffffffffffffffff16021790555061058d8061011e6000396000f3fe608060405234801561001057600080fd5b506004361061009e5760003560e01c80638da5cb5b116100665780638da5cb5b1461020f578063988e4ea714610259578063d3ac25c4146102a3578063ea879634146102e7578063f2fde38b146103315761009e565b806310f3a6d8146100a357806324c12bf6146100ed5780634695195414610137578063893d20e81461017b5780638c0ceea5146101c5575b600080fd5b6100ab610375565b604051808273ffffffffffffffffffffffffffffffffffffffff1673ffffffffffffffffffffffffffffffffffffffff16815260200191505060405180910390f35b6100f561039f565b604051808273ffffffffffffffffffffffffffffffffffffffff1673ffffffffffffffffffffffffffffffffffffffff16815260200191505060405180910390f35b6101796004803603602081101561014d57600080fd5b81019080803573ffffffffffffffffffffffffffffffffffffffff1690602001909291905050506103c5565b005b610183610409565b604051808273ffffffffffffffffffffffffffffffffffffffff1673ffffffffffffffffffffffffffffffffffffffff16815260200191505060405180910390f35b6101cd610432565b604051808273ffffffffffffffffffffffffffffffffffffffff1673ffffffffffffffffffffffffffffffffffffffff16815260200191505060405180910390f35b610217610458565b604051808273ffffffffffffffffffffffffffffffffffffffff1673ffffffffffffffffffffffffffffffffffffffff16815260200191505060405180910390f35b61026161047d565b604051808273ffffffffffffffffffffffffffffffffffffffff1673ffffffffffffffffffffffffffffffffffffffff16815260200191505060405180910390f35b6102e5600480360360208110156102b957600080fd5b81019080803573ffffffffffffffffffffffffffffffffffffffff1690602001909291905050506104a7565b005b6102ef6104eb565b604051808273ffffffffffffffffffffffffffffffffffffffff1673ffffffffffffffffffffffffffffffffffffffff16815260200191505060405180910390f35b6103736004803603602081101561034757600080fd5b81019080803573ffffffffffffffffffffffffffffffffffffffff169060200190929190505050610515565b005b6000600160009054906101000a900473ffffffffffffffffffffffffffffffffffffffff16905090565b600260009054906101000a900473ffffffffffffffffffffffffffffffffffffffff1681565b80600260006101000a81548173ffffffffffffffffffffffffffffffffffffffff021916908373ffffffffffffffffffffffffffffffffffffffff16021790555050565b60008060009054906101000a900473ffffffffffffffffffffffffffffffffffffffff16905090565b600160009054906101000a900473ffffffffffffffffffffffffffffffffffffffff1681565b6000809054906101000a900473ffffffffffffffffffffffffffffffffffffffff1681565b6000600160009054906101000a900473ffffffffffffffffffffffffffffffffffffffff16905090565b80600160006101000a81548173ffffffffffffffffffffffffffffffffffffffff021916908373ffffffffffffffffffffffffffffffffffffffff16021790555050565b6000600260009054906101000a900473ffffffffffffffffffffffffffffffffffffffff16905090565b806000806101000a81548173ffffffffffffffffffffffffffffffffffffffff021916908373ffffffffffffffffffffffffffffffffffffffff1602179055505056fea265627a7a72315820b2ec8348085c7b601c1b17b50afa7a19af3540723b8fb42283c5447bcef33b0264736f6c63430005100032",
  "source": "pragma solidity ^0.5.16;\n\ncontract mockDAI {\n    // state\n    address public owner;\n    address public allocationStrategy;\n    address public code;\n\n\n    // constructor\n    constructor() public {\n        owner = 0xB85141AF6E497a508e60763A68560f2f710F83b2;\n        allocationStrategy = 0xec458c824E645CC8B03a4eF3d3e364c7AE9F9521;\n        code = 0xBe19dBee25F447133d0FA3cA05b88D8Ff2a9CB8f;\n    }\n\n\n    // functions\n\n    /**\n     * @notice Get current owner\n     */\n    function getOwner() external view returns (address) {\n        return owner;\n    }\n\n    /**\n     * @notice Get current owner\n     */\n    function getAllocationStrategy() external view returns (address) {\n        return allocationStrategy;\n    }\n\n    /**\n     * @notice Get current owner\n     */\n    function getCode() external view returns (address) {\n        return code;\n    }\n\n    /**\n     * @notice Transfers ownership of the contract to a new account (`newOwner`).\n     */\n    function transferOwnership(address newOwner) external {\n        owner = newOwner;\n    }\n\n    /**\n    * @notice Get the current allocation strategy\n    */\n    function getCurrentAllocationStrategy()\n        external view returns (address) {\n            return allocationStrategy;\n        }\n\n    /**\n    * @notice Change allocation strategy for the contract instance\n    * @param _allocationStrategy Allocation strategy instance\n    */\n    function changeAllocationStrategy(address _allocationStrategy)\n        external {\n            allocationStrategy = _allocationStrategy;\n        }\n\n\n    /**\n     * @notice Update the rToken logic contract code\n     */\n    function updateCode(address newCode) external {\n        code = newCode;\n    }\n\n}",
  "sourcePath": "/home/unroot/projects/mockDAI/contracts/mockDAI.sol",
  "compiler": {
    "name": "solc",
    "version": "0.5.16+commit.9c3226ce.Emscripten.clang"
  },
  "schemaVersion": "3.0.23",
  "updatedAt": "2020-02-11T10:37:41.293Z",
  "networkType": "ethereum",
  "devdoc": {
    "methods": {
      "changeAllocationStrategy(address)": {
        "params": {
          "_allocationStrategy": "Allocation strategy instance"
        }
      }
    }
  },
  "userdoc": {
    "methods": {
      "changeAllocationStrategy(address)": {
        "notice": "Change allocation strategy for the contract instance"
      },
      "getAllocationStrategy()": {
        "notice": "Get current owner"
      },
      "getCode()": {
        "notice": "Get current owner"
      },
      "getCurrentAllocationStrategy()": {
        "notice": "Get the current allocation strategy"
      },
      "getOwner()": {
        "notice": "Get current owner"
      },
      "transferOwnership(address)": {
        "notice": "Transfers ownership of the contract to a new account (`newOwner`)."
      },
      "updateCode(address)": {
        "notice": "Update the rToken logic contract code"
      }
    }
  }
}